{
    "count": 14,
    "next": null,
    "previous": null,
    "results": [
        {
            "safe": "0x0c2A08D294026Cd363441240C2ed5D09C93A044F",
            "to": "0x40A2aCCbd92BCA938b02010E17A5b8929b49130D",
            "value": "0",
            "data": "0x8d80ff0a0000000000000000000000000000000000000000000000000000000000000020000000000000000000000000000000000000000000000000000000000000046b00469788fe6e9e9681c6ebf3bf78e7fd26fc01544600000000000000000000000000000000000000000000000000000000000000000000000000000000000000000000000000000000000000000000000000000044bd86e508736166652e65746800000000000000000000000000000000000000000000000000000000000000000000000077f0ce5c117ae6710d323d8360602738760cbb6d00a0b937d5c8e32a80e3a8ed4227cd020221544ee6000000000000000000000000000000000000000000000000000000000000000000000000000000000000000000000000000000000000000000000000000002c4bf6213e4000000000000000000000000000000000000000000000000000000000000000000000000000000000000000000000000000000000000000000000000000001a0000000000000000000000000000000000000000000000000000000005bacaa20000000000000000000000000000000000000000000000055f1b323e050f8000000000000000000000000000000000000000000000000000000000000000000a0000000000000000000000000000000000000000000000000000000000000001054fd04b101ee35d3a86dbd6e5bce077281b29ecb1b300feb9a9c8b4996405c1e4f69a80c7d87c4bd37ecbbc466dba98335f7cad00607b950fdaa5f26b4fee03f2eb117a1e5b7234180c7a18bc52a19a77b676fea7cd7947d7951a2de60acde3fc8ac6573f7acd5b2fb10770978c6b2af24eea23f422b39a6bc89b1cd88652690657a6bbf7923b42543e71b9c436ca3bee0a954fe3411a895bdc6f08a41b19dc0dc4c8b6a5d0f073fed715c924c054c75691c44333d364325ee23a6799a09ac25ce5ed104c21c97fdc4a3e7aa6bff2ad8ef3c150c3580602183c98f31726819184b8845a6127fede160c47d87af9f53f3979a5bfa725172e185d7218b3709e169b82c1d78d367d3335338e462caf5fdb5fd34e1032bc4096332bd5e2753c2e46c483eba6977ee22a1669c635b33b7bc406ecddd37369b8ef5fa6a3d3d615ad38f5d547e62a5c7a14c5f3ead0f809f7ef00511071bb14df5e53e7042939f768ca8193c829fd87b118d11e737c3902cfe190348fa0b8d0d7aa9775653b97a213cb4d6c78151484cc00bc2945b3ae0ef71c700b50feedc1ab1e96c22e7401c774703531b401cf833453be5e19f3ee07df93c01947c0e49c7669d3751b2b97496f1366b3e88b74da169ca93e56f322d7b2ab8416495d64a8a9f57d0ca443d995b2364f8e2791b9d07b3e620189a36bf17e30c874e66b205c79492a16cd5a9c5bb65b700a0b937d5c8e32a80e3a8ed4227cd020221544ee6000000000000000000000000000000000000000000000000000000000000000000000000000000000000000000000000000000000000000000000000000000640087b83f27b587e4206f5c6e797ec419d882781a18b93656a83db2ff2ff1fdc435e6518b0000000000000000000000000c2a08d294026cd363441240c2ed5d09c93a044f00000000000000000000000000000000ffffffffffffffffffffffffffffffff000000000000000000000000000000000000000000",
            "operation": 1,
            "gasToken": "0x0000000000000000000000000000000000000000",
            "safeTxGas": 0,
            "baseGas": 0,
            "gasPrice": "0",
            "refundReceiver": "0x0000000000000000000000000000000000000000",
            "nonce": 12,
            "executionDate": "2022-10-04T22:27:47Z",
            "submissionDate": "2022-10-04T22:27:47Z",
            "modified": "2022-10-04T22:27:47Z",
            "blockNumber": 15677740,
            "transactionHash": "0x169e6a7b8e7cfe4be71881bc9b8a92cfef8973deafc60b5b0fb471886611dd3c",
            "safeTxHash": "0xe5d12a76416195e1bef2db7376ccabc5e2e904f20211c3b08f9036d742f06810",
            "executor": "0x2B59FD03d176aFC335Fa6D4FBCDf5cF48a6844FB",
            "isExecuted": true,
            "isSuccessful": true,
            "ethGasPrice": "10000000000",
            "maxFeePerGas": null,
            "maxPriorityFeePerGas": null,
            "gasUsed": 255136,
            "fee": "2551360000000000",
            "origin": null,
            "dataDecoded": {
                "method": "multiSend",
                "parameters": [
                    {
                        "name": "transactions",
                        "type": "bytes",
                        "value": "0x00469788fe6e9e9681c6ebf3bf78e7fd26fc01544600000000000000000000000000000000000000000000000000000000000000000000000000000000000000000000000000000000000000000000000000000044bd86e508736166652e65746800000000000000000000000000000000000000000000000000000000000000000000000077f0ce5c117ae6710d323d8360602738760cbb6d00a0b937d5c8e32a80e3a8ed4227cd020221544ee6000000000000000000000000000000000000000000000000000000000000000000000000000000000000000000000000000000000000000000000000000002c4bf6213e4000000000000000000000000000000000000000000000000000000000000000000000000000000000000000000000000000000000000000000000000000001a0000000000000000000000000000000000000000000000000000000005bacaa20000000000000000000000000000000000000000000000055f1b323e050f8000000000000000000000000000000000000000000000000000000000000000000a0000000000000000000000000000000000000000000000000000000000000001054fd04b101ee35d3a86dbd6e5bce077281b29ecb1b300feb9a9c8b4996405c1e4f69a80c7d87c4bd37ecbbc466dba98335f7cad00607b950fdaa5f26b4fee03f2eb117a1e5b7234180c7a18bc52a19a77b676fea7cd7947d7951a2de60acde3fc8ac6573f7acd5b2fb10770978c6b2af24eea23f422b39a6bc89b1cd88652690657a6bbf7923b42543e71b9c436ca3bee0a954fe3411a895bdc6f08a41b19dc0dc4c8b6a5d0f073fed715c924c054c75691c44333d364325ee23a6799a09ac25ce5ed104c21c97fdc4a3e7aa6bff2ad8ef3c150c3580602183c98f31726819184b8845a6127fede160c47d87af9f53f3979a5bfa725172e185d7218b3709e169b82c1d78d367d3335338e462caf5fdb5fd34e1032bc4096332bd5e2753c2e46c483eba6977ee22a1669c635b33b7bc406ecddd37369b8ef5fa6a3d3d615ad38f5d547e62a5c7a14c5f3ead0f809f7ef00511071bb14df5e53e7042939f768ca8193c829fd87b118d11e737c3902cfe190348fa0b8d0d7aa9775653b97a213cb4d6c78151484cc00bc2945b3ae0ef71c700b50feedc1ab1e96c22e7401c774703531b401cf833453be5e19f3ee07df93c01947c0e49c7669d3751b2b97496f1366b3e88b74da169ca93e56f322d7b2ab8416495d64a8a9f57d0ca443d995b2364f8e2791b9d07b3e620189a36bf17e30c874e66b205c79492a16cd5a9c5bb65b700a0b937d5c8e32a80e3a8ed4227cd020221544ee6000000000000000000000000000000000000000000000000000000000000000000000000000000000000000000000000000000000000000000000000000000640087b83f27b587e4206f5c6e797ec419d882781a18b93656a83db2ff2ff1fdc435e6518b0000000000000000000000000c2a08d294026cd363441240c2ed5d09c93a044f00000000000000000000000000000000ffffffffffffffffffffffffffffffff",
                        "valueDecoded": [
                            {
                                "operation": 0,
                                "to": "0x469788fE6E9E9681C6ebF3bF78e7Fd26Fc015446",
                                "value": "0",
                                "data": "0xbd86e508736166652e65746800000000000000000000000000000000000000000000000000000000000000000000000077f0ce5c117ae6710d323d8360602738760cbb6d",
                                "dataDecoded": {
                                    "method": "setDelegate",
                                    "parameters": [
                                        {
                                            "name": "id",
                                            "type": "bytes32",
                                            "value": "0x736166652e657468000000000000000000000000000000000000000000000000"
                                        },
                                        {
                                            "name": "delegate",
                                            "type": "address",
                                            "value": "0x77f0Ce5c117AE6710d323D8360602738760CBB6d"
                                        }
                                    ]
                                }
                            },
                            {
                                "operation": 0,
                                "to": "0xA0b937D5c8E32a80E3a8ed4227CD020221544ee6",
                                "value": "0",
                                "data": "0xbf6213e4000000000000000000000000000000000000000000000000000000000000000000000000000000000000000000000000000000000000000000000000000001a0000000000000000000000000000000000000000000000000000000005bacaa20000000000000000000000000000000000000000000000055f1b323e050f8000000000000000000000000000000000000000000000000000000000000000000a0000000000000000000000000000000000000000000000000000000000000001054fd04b101ee35d3a86dbd6e5bce077281b29ecb1b300feb9a9c8b4996405c1e4f69a80c7d87c4bd37ecbbc466dba98335f7cad00607b950fdaa5f26b4fee03f2eb117a1e5b7234180c7a18bc52a19a77b676fea7cd7947d7951a2de60acde3fc8ac6573f7acd5b2fb10770978c6b2af24eea23f422b39a6bc89b1cd88652690657a6bbf7923b42543e71b9c436ca3bee0a954fe3411a895bdc6f08a41b19dc0dc4c8b6a5d0f073fed715c924c054c75691c44333d364325ee23a6799a09ac25ce5ed104c21c97fdc4a3e7aa6bff2ad8ef3c150c3580602183c98f31726819184b8845a6127fede160c47d87af9f53f3979a5bfa725172e185d7218b3709e169b82c1d78d367d3335338e462caf5fdb5fd34e1032bc4096332bd5e2753c2e46c483eba6977ee22a1669c635b33b7bc406ecddd37369b8ef5fa6a3d3d615ad38f5d547e62a5c7a14c5f3ead0f809f7ef00511071bb14df5e53e7042939f768ca8193c829fd87b118d11e737c3902cfe190348fa0b8d0d7aa9775653b97a213cb4d6c78151484cc00bc2945b3ae0ef71c700b50feedc1ab1e96c22e7401c774703531b401cf833453be5e19f3ee07df93c01947c0e49c7669d3751b2b97496f1366b3e88b74da169ca93e56f322d7b2ab8416495d64a8a9f57d0ca443d995b2364f8e2791b9d07b3e620189a36bf17e30c874e66b205c79492a16cd5a9c5bb65b7",
                                "dataDecoded": {
                                    "method": "redeem",
                                    "parameters": [
                                        {
                                            "name": "curveType",
                                            "type": "uint8",
                                            "value": "0"
                                        },
                                        {
                                            "name": "durationWeeks",
                                            "type": "uint16",
                                            "value": "416"
                                        },
                                        {
                                            "name": "startDate",
                                            "type": "uint64",
                                            "value": "1538042400"
                                        },
                                        {
                                            "name": "amount",
                                            "type": "uint128",
                                            "value": "1585389549895621804032"
                                        },
                                        {
                                            "name": "proof",
                                            "type": "bytes32[]",
                                            "value": [
                                                "0x54fd04b101ee35d3a86dbd6e5bce077281b29ecb1b300feb9a9c8b4996405c1e",
                                                "0x4f69a80c7d87c4bd37ecbbc466dba98335f7cad00607b950fdaa5f26b4fee03f",
                                                "0x2eb117a1e5b7234180c7a18bc52a19a77b676fea7cd7947d7951a2de60acde3f",
                                                "0xc8ac6573f7acd5b2fb10770978c6b2af24eea23f422b39a6bc89b1cd88652690",
                                                "0x657a6bbf7923b42543e71b9c436ca3bee0a954fe3411a895bdc6f08a41b19dc0",
                                                "0xdc4c8b6a5d0f073fed715c924c054c75691c44333d364325ee23a6799a09ac25",
                                                "0xce5ed104c21c97fdc4a3e7aa6bff2ad8ef3c150c3580602183c98f3172681918",
                                                "0x4b8845a6127fede160c47d87af9f53f3979a5bfa725172e185d7218b3709e169",
                                                "0xb82c1d78d367d3335338e462caf5fdb5fd34e1032bc4096332bd5e2753c2e46c",
                                                "0x483eba6977ee22a1669c635b33b7bc406ecddd37369b8ef5fa6a3d3d615ad38f",
                                                "0x5d547e62a5c7a14c5f3ead0f809f7ef00511071bb14df5e53e7042939f768ca8",
                                                "0x193c829fd87b118d11e737c3902cfe190348fa0b8d0d7aa9775653b97a213cb4",
                                                "0xd6c78151484cc00bc2945b3ae0ef71c700b50feedc1ab1e96c22e7401c774703",
                                                "0x531b401cf833453be5e19f3ee07df93c01947c0e49c7669d3751b2b97496f136",
                                                "0x6b3e88b74da169ca93e56f322d7b2ab8416495d64a8a9f57d0ca443d995b2364",
                                                "0xf8e2791b9d07b3e620189a36bf17e30c874e66b205c79492a16cd5a9c5bb65b7"
                                            ]
                                        }
                                    ]
                                }
                            },
                            {
                                "operation": 0,
                                "to": "0xA0b937D5c8E32a80E3a8ed4227CD020221544ee6",
                                "value": "0",
                                "data": "0x0087b83f27b587e4206f5c6e797ec419d882781a18b93656a83db2ff2ff1fdc435e6518b0000000000000000000000000c2a08d294026cd363441240c2ed5d09c93a044f00000000000000000000000000000000ffffffffffffffffffffffffffffffff",
                                "dataDecoded": {
                                    "method": "claimVestedTokensViaModule",
                                    "parameters": [
                                        {
                                            "name": "vestingId",
                                            "type": "bytes32",
                                            "value": "0x27b587e4206f5c6e797ec419d882781a18b93656a83db2ff2ff1fdc435e6518b"
                                        },
                                        {
                                            "name": "beneficiary",
                                            "type": "address",
                                            "value": "0x0c2A08D294026Cd363441240C2ed5D09C93A044F"
                                        },
                                        {
                                            "name": "tokensToClaim",
                                            "type": "uint128",
                                            "value": "340282366920938463463374607431768211455"
                                        }
                                    ]
                                }
                            }
                        ]
                    }
                ]
            },
            "confirmationsRequired": 3,
            "confirmations": [
                {
                    "owner": "0x2B59FD03d176aFC335Fa6D4FBCDf5cF48a6844FB",
                    "submissionDate": "2022-10-04T22:27:47Z",
                    "transactionHash": null,
                    "signature": "0x0000000000000000000000002b59fd03d176afc335fa6d4fbcdf5cf48a6844fb000000000000000000000000000000000000000000000000000000000000000001",
                    "signatureType": "APPROVED_HASH"
                },
                {
                    "owner": "0x76609104852dc5CdB3AEcA438054360A767b7095",
                    "submissionDate": "2022-10-04T22:27:47Z",
                    "transactionHash": null,
                    "signature": "0x9cc710b0b7353a8c7f7dc4c080e0862cc6f9837f902f6c9c024296d84a4109dd183fb232028cde1bbf06c0e9343db60c0d26fd0b973cad9ebcaf2f910f660ce71c",
                    "signatureType": "EOA"
                },
                {
                    "owner": "0xcb43C75051F93F95DEfF5F9A971b8D5109a4f25C",
                    "submissionDate": "2022-10-04T22:27:47Z",
                    "transactionHash": null,
                    "signature": "0xd7919e7a409881352fac7811d00744070ff8227bc81c0c5aab68c5d500b4a9c906e139cf2b331db6b43001b64452484cfe1bb38aaa3d3570c884d921526d06d91b",
                    "signatureType": "EOA"
                }
            ],
            "trusted": true,
            "signatures": "0x0000000000000000000000002b59fd03d176afc335fa6d4fbcdf5cf48a6844fb0000000000000000000000000000000000000000000000000000000000000000019cc710b0b7353a8c7f7dc4c080e0862cc6f9837f902f6c9c024296d84a4109dd183fb232028cde1bbf06c0e9343db60c0d26fd0b973cad9ebcaf2f910f660ce71cd7919e7a409881352fac7811d00744070ff8227bc81c0c5aab68c5d500b4a9c906e139cf2b331db6b43001b64452484cfe1bb38aaa3d3570c884d921526d06d91b"
        },
        {
            "safe": "0x0c2A08D294026Cd363441240C2ed5D09C93A044F",
            "to": "0x40A2aCCbd92BCA938b02010E17A5b8929b49130D",
            "value": "0",
            "data": "0x8d80ff0a000000000000000000000000000000000000000000000000000000000000002000000000000000000000000000000000000000000000000000000000000005a5001df34258bfbf05741c8480599ab3f94599f9a7010000000000000000000000000000000000000000000000000de0b6b3a764000000000000000000000000000000000000000000000000000000000000000000000023e88abffd2fc8e8a827887effe724d9335a97f30000000000000000000000000000000000000000000000000de0b6b3a76400000000000000000000000000000000000000000000000000000000000000000000002c6e2e2eb9153631aa098d671df870a0f9026d740000000000000000000000000000000000000000000000000de0b6b3a764000000000000000000000000000000000000000000000000000000000000000000000034d7bceaa2b3cfb1de368baa703683edc666d3f10000000000000000000000000000000000000000000000000de0b6b3a764000000000000000000000000000000000000000000000000000000000000000000000039030a8ff6e9952b8dfc6d09b5f2b2fedae25a490000000000000000000000000000000000000000000000000de0b6b3a7640000000000000000000000000000000000000000000000000000000000000000000000522b72f0963a33168a55c4ff3c699376c2c1041f0000000000000000000000000000000000000000000000000de0b6b3a76400000000000000000000000000000000000000000000000000000000000000000000005d50ca0a21f434e9f3f8110e1980005111d1b93b0000000000000000000000000000000000000000000000000de0b6b3a76400000000000000000000000000000000000000000000000000000000000000000000006872d36a512f5c823ddd1b0c455801453889ca900000000000000000000000000000000000000000000000000de0b6b3a76400000000000000000000000000000000000000000000000000000000000000000000006fac2bcca1f5397bf2bc96aa4ae8f357288827610000000000000000000000000000000000000000000000000de0b6b3a76400000000000000000000000000000000000000000000000000000000000000000000008b1a06563977716bcc227c76609b161713c819570000000000000000000000000000000000000000000000000de0b6b3a764000000000000000000000000000000000000000000000000000000000000000000000093b50f731355058661ee6ee7d8cc9b32dd3093ee0000000000000000000000000000000000000000000000000de0b6b3a764000000000000000000000000000000000000000000000000000000000000000000000095ef2c983e1888b8c266ada6a922f98638754efd0000000000000000000000000000000000000000000000000de0b6b3a7640000000000000000000000000000000000000000000000000000000000000000000000a21a42025b394efacbb45ed1d76fe098464812c10000000000000000000000000000000000000000000000000de0b6b3a7640000000000000000000000000000000000000000000000000000000000000000000000a98c5689005946a837ade0230b3279f00f8a1ea90000000000000000000000000000000000000000000000004563918244f40000000000000000000000000000000000000000000000000000000000000000000000aa15ab8fea0ae32ee23f3e74ae5aba1ac125f34900000000000000000000000000000000000000000000000022b1c8c1227a0000000000000000000000000000000000000000000000000000000000000000000000c54bbb19555642dbafbd43e7bb1ecddcb25614ee0000000000000000000000000000000000000000000000000de0b6b3a7640000000000000000000000000000000000000000000000000000000000000000000000ef563bda36c53bc101c0ffeb984f28c06304185a0000000000000000000000000000000000000000000000000de0b6b3a76400000000000000000000000000000000000000000000000000000000000000000000000000000000000000000000000000000000000000000000000000",
            "operation": 1,
            "gasToken": "0x0000000000000000000000000000000000000000",
            "safeTxGas": 0,
            "baseGas": 0,
            "gasPrice": "0",
            "refundReceiver": "0x0000000000000000000000000000000000000000",
            "nonce": 11,
            "executionDate": "2022-06-28T20:51:04Z",
            "submissionDate": "2022-06-28T20:51:04Z",
            "modified": "2022-06-28T20:51:04Z",
            "blockNumber": 15041563,
            "transactionHash": "0xaca2fb42c40bd3a3d85557b7739f71e28431b6000157722b07c188927edaa98e",
            "safeTxHash": "0xbaaed7e8b2b5c3672bf0c5de63afd3606cd169cbeb2b6fce6eedd9597763c88d",
            "executor": "0x1Df34258bfbF05741C8480599Ab3f94599F9a701",
            "isExecuted": true,
            "isSuccessful": true,
            "ethGasPrice": "52845929110",
            "maxFeePerGas": "55000000000",
            "maxPriorityFeePerGas": "2000000000",
            "gasUsed": 239689,
            "fee": "12666587902446790",
            "origin": null,
            "dataDecoded": {
                "method": "multiSend",
                "parameters": [
                    {
                        "name": "transactions",
                        "type": "bytes",
                        "value": "0x001df34258bfbf05741c8480599ab3f94599f9a7010000000000000000000000000000000000000000000000000de0b6b3a764000000000000000000000000000000000000000000000000000000000000000000000023e88abffd2fc8e8a827887effe724d9335a97f30000000000000000000000000000000000000000000000000de0b6b3a76400000000000000000000000000000000000000000000000000000000000000000000002c6e2e2eb9153631aa098d671df870a0f9026d740000000000000000000000000000000000000000000000000de0b6b3a764000000000000000000000000000000000000000000000000000000000000000000000034d7bceaa2b3cfb1de368baa703683edc666d3f10000000000000000000000000000000000000000000000000de0b6b3a764000000000000000000000000000000000000000000000000000000000000000000000039030a8ff6e9952b8dfc6d09b5f2b2fedae25a490000000000000000000000000000000000000000000000000de0b6b3a7640000000000000000000000000000000000000000000000000000000000000000000000522b72f0963a33168a55c4ff3c699376c2c1041f0000000000000000000000000000000000000000000000000de0b6b3a76400000000000000000000000000000000000000000000000000000000000000000000005d50ca0a21f434e9f3f8110e1980005111d1b93b0000000000000000000000000000000000000000000000000de0b6b3a76400000000000000000000000000000000000000000000000000000000000000000000006872d36a512f5c823ddd1b0c455801453889ca900000000000000000000000000000000000000000000000000de0b6b3a76400000000000000000000000000000000000000000000000000000000000000000000006fac2bcca1f5397bf2bc96aa4ae8f357288827610000000000000000000000000000000000000000000000000de0b6b3a76400000000000000000000000000000000000000000000000000000000000000000000008b1a06563977716bcc227c76609b161713c819570000000000000000000000000000000000000000000000000de0b6b3a764000000000000000000000000000000000000000000000000000000000000000000000093b50f731355058661ee6ee7d8cc9b32dd3093ee0000000000000000000000000000000000000000000000000de0b6b3a764000000000000000000000000000000000000000000000000000000000000000000000095ef2c983e1888b8c266ada6a922f98638754efd0000000000000000000000000000000000000000000000000de0b6b3a7640000000000000000000000000000000000000000000000000000000000000000000000a21a42025b394efacbb45ed1d76fe098464812c10000000000000000000000000000000000000000000000000de0b6b3a7640000000000000000000000000000000000000000000000000000000000000000000000a98c5689005946a837ade0230b3279f00f8a1ea90000000000000000000000000000000000000000000000004563918244f40000000000000000000000000000000000000000000000000000000000000000000000aa15ab8fea0ae32ee23f3e74ae5aba1ac125f34900000000000000000000000000000000000000000000000022b1c8c1227a0000000000000000000000000000000000000000000000000000000000000000000000c54bbb19555642dbafbd43e7bb1ecddcb25614ee0000000000000000000000000000000000000000000000000de0b6b3a7640000000000000000000000000000000000000000000000000000000000000000000000ef563bda36c53bc101c0ffeb984f28c06304185a0000000000000000000000000000000000000000000000000de0b6b3a76400000000000000000000000000000000000000000000000000000000000000000000",
                        "valueDecoded": [
                            {
                                "operation": 0,
                                "to": "0x1Df34258bfbF05741C8480599Ab3f94599F9a701",
                                "value": "1000000000000000000",
                                "data": null,
                                "dataDecoded": null
                            },
                            {
                                "operation": 0,
                                "to": "0x23e88aBffd2FC8E8A827887eFfE724D9335a97F3",
                                "value": "1000000000000000000",
                                "data": null,
                                "dataDecoded": null
                            },
                            {
                                "operation": 0,
                                "to": "0x2C6E2e2Eb9153631Aa098D671Df870a0F9026d74",
                                "value": "1000000000000000000",
                                "data": null,
                                "dataDecoded": null
                            },
                            {
                                "operation": 0,
                                "to": "0x34D7bCeaA2B3cfb1dE368BAA703683EDC666d3f1",
                                "value": "1000000000000000000",
                                "data": null,
                                "dataDecoded": null
                            },
                            {
                                "operation": 0,
                                "to": "0x39030a8fF6E9952b8Dfc6d09B5f2b2feDAE25A49",
                                "value": "1000000000000000000",
                                "data": null,
                                "dataDecoded": null
                            },
                            {
                                "operation": 0,
                                "to": "0x522B72F0963A33168a55C4ff3C699376C2C1041F",
                                "value": "1000000000000000000",
                                "data": null,
                                "dataDecoded": null
                            },
                            {
                                "operation": 0,
                                "to": "0x5D50cA0a21F434E9F3f8110e1980005111D1B93b",
                                "value": "1000000000000000000",
                                "data": null,
                                "dataDecoded": null
                            },
                            {
                                "operation": 0,
                                "to": "0x6872D36A512F5C823DDd1b0C455801453889ca90",
                                "value": "1000000000000000000",
                                "data": null,
                                "dataDecoded": null
                            },
                            {
                                "operation": 0,
                                "to": "0x6FAC2BcCA1f5397BF2Bc96aA4aE8f35728882761",
                                "value": "1000000000000000000",
                                "data": null,
                                "dataDecoded": null
                            },
                            {
                                "operation": 0,
                                "to": "0x8B1a06563977716Bcc227C76609b161713c81957",
                                "value": "1000000000000000000",
                                "data": null,
                                "dataDecoded": null
                            },
                            {
                                "operation": 0,
                                "to": "0x93b50F731355058661EE6ee7d8cC9b32dD3093Ee",
                                "value": "1000000000000000000",
                                "data": null,
                                "dataDecoded": null
                            },
                            {
                                "operation": 0,
                                "to": "0x95Ef2c983E1888b8C266Ada6A922F98638754efD",
                                "value": "1000000000000000000",
                                "data": null,
                                "dataDecoded": null
                            },
                            {
                                "operation": 0,
                                "to": "0xA21A42025B394EfACBb45ed1d76fE098464812C1",
                                "value": "1000000000000000000",
                                "data": null,
                                "dataDecoded": null
                            },
                            {
                                "operation": 0,
                                "to": "0xa98C5689005946a837adE0230b3279F00f8a1EA9",
                                "value": "5000000000000000000",
                                "data": null,
                                "dataDecoded": null
                            },
                            {
                                "operation": 0,
                                "to": "0xaA15Ab8feA0ae32EE23F3e74ae5ABa1ac125f349",
                                "value": "2500000000000000000",
                                "data": null,
                                "dataDecoded": null
                            },
                            {
                                "operation": 0,
                                "to": "0xC54bBb19555642dbafbd43E7BB1EcddcB25614Ee",
                                "value": "1000000000000000000",
                                "data": null,
                                "dataDecoded": null
                            },
                            {
                                "operation": 0,
                                "to": "0xEf563bDa36c53BC101C0fFEb984f28C06304185a",
                                "value": "1000000000000000000",
                                "data": null,
                                "dataDecoded": null
                            }
                        ]
                    }
                ]
            },
            "confirmationsRequired": 3,
            "confirmations": [
                {
                    "owner": "0x1Df34258bfbF05741C8480599Ab3f94599F9a701",
                    "submissionDate": "2022-06-28T20:51:04Z",
                    "transactionHash": null,
                    "signature": "0x3f5c2f7d508a7aa1a4b1390fe1674140aa9aebcdd933de3d4306afa318dfd5e509182dc9ffa8b1e93cbcf969243cd71a9607daa90fd6d2df33d264267aa805821b",
                    "signatureType": "EOA"
                },
                {
                    "owner": "0xA21A42025B394EfACBb45ed1d76fE098464812C1",
                    "submissionDate": "2022-06-28T20:51:04Z",
                    "transactionHash": null,
                    "signature": "0xf4aba2eddfe887970471b952db30def819adf62fa9958c02cdfabde29d586cb12da188a701fff88cd71a797d502dda2e79b75ec7c89e5aa86b873e727fdede3d20",
                    "signatureType": "ETH_SIGN"
                },
                {
                    "owner": "0xcb43C75051F93F95DEfF5F9A971b8D5109a4f25C",
                    "submissionDate": "2022-06-28T20:51:04Z",
                    "transactionHash": null,
                    "signature": "0x8a0410d40373d1347c9010801f0407d56e9494385904fa0403d10c542106e4792db8c8f96489f23aaab321cd6014a68e82496ee7d7aa9b211ccc5f5cf03795db1b",
                    "signatureType": "EOA"
                }
            ],
            "trusted": true,
            "signatures": "0x3f5c2f7d508a7aa1a4b1390fe1674140aa9aebcdd933de3d4306afa318dfd5e509182dc9ffa8b1e93cbcf969243cd71a9607daa90fd6d2df33d264267aa805821bf4aba2eddfe887970471b952db30def819adf62fa9958c02cdfabde29d586cb12da188a701fff88cd71a797d502dda2e79b75ec7c89e5aa86b873e727fdede3d208a0410d40373d1347c9010801f0407d56e9494385904fa0403d10c542106e4792db8c8f96489f23aaab321cd6014a68e82496ee7d7aa9b211ccc5f5cf03795db1b"
        },
        {
            "safe": "0x0c2A08D294026Cd363441240C2ed5D09C93A044F",
            "to": "0xC02aaA39b223FE8D0A0e5C4F27eAD9083C756Cc2",
            "value": "0",
            "data": "0x2e1a7d4d00000000000000000000000000000000000000000000000029a2241af62c0000869584cd00000000000000000000000086003b044f70dac0abc80ac8957305b6370893ed0000000000000000000000000000000000000000000000647d38dc8962b97322",
            "operation": 0,
            "gasToken": "0x0000000000000000000000000000000000000000",
            "safeTxGas": 0,
            "baseGas": 0,
            "gasPrice": "0",
            "refundReceiver": "0x0000000000000000000000000000000000000000",
            "nonce": 10,
            "executionDate": "2022-06-28T17:11:17Z",
            "submissionDate": "2022-06-28T17:11:17Z",
            "modified": "2022-06-28T17:11:17Z",
            "blockNumber": 15040720,
            "transactionHash": "0x70fa97553ce27637fbcc922600df48e9ba4d6c01dec2130f48887970866a853f",
            "safeTxHash": "0x4b12c8ec6a3259fe45d24b54fae72296e53b0a189c7716d3fdd2505923041274",
            "executor": "0xcb43C75051F93F95DEfF5F9A971b8D5109a4f25C",
            "isExecuted": true,
            "isSuccessful": true,
            "ethGasPrice": "61000000000",
            "maxFeePerGas": "61000000000",
            "maxPriorityFeePerGas": "1600000000",
            "gasUsed": 74444,
            "fee": "4541084000000000",
            "origin": null,
            "dataDecoded": {
                "method": "withdraw",
                "parameters": [
                    {
                        "name": "wad",
                        "type": "uint256",
                        "value": "3000000000000000000"
                    }
                ]
            },
            "confirmationsRequired": 3,
            "confirmations": [
                {
                    "owner": "0x1Df34258bfbF05741C8480599Ab3f94599F9a701",
                    "submissionDate": "2022-06-28T17:11:17Z",
                    "transactionHash": null,
                    "signature": "0x426f1696a3ea7a4a692ec802124562984363fc66e67905be221308afcb435e73631391426d8271dbfa24fd90195bb3887754af1022d489b7214202a82e5b896d1b",
                    "signatureType": "EOA"
                },
                {
                    "owner": "0xA21A42025B394EfACBb45ed1d76fE098464812C1",
                    "submissionDate": "2022-06-28T17:11:17Z",
                    "transactionHash": null,
                    "signature": "0x74a118a894dc6ff3a288ea436c55400e028171cd9dfc57b61ad7b75a4211e1af754ef562eba151b55d9a1f169e656486bc4eea32df00a96f2ddb30f78451de811f",
                    "signatureType": "ETH_SIGN"
                },
                {
                    "owner": "0xcb43C75051F93F95DEfF5F9A971b8D5109a4f25C",
                    "submissionDate": "2022-06-28T17:11:17Z",
                    "transactionHash": null,
                    "signature": "0x000000000000000000000000cb43c75051f93f95deff5f9a971b8d5109a4f25c000000000000000000000000000000000000000000000000000000000000000001",
                    "signatureType": "APPROVED_HASH"
                }
            ],
            "trusted": true,
            "signatures": "0x426f1696a3ea7a4a692ec802124562984363fc66e67905be221308afcb435e73631391426d8271dbfa24fd90195bb3887754af1022d489b7214202a82e5b896d1b74a118a894dc6ff3a288ea436c55400e028171cd9dfc57b61ad7b75a4211e1af754ef562eba151b55d9a1f169e656486bc4eea32df00a96f2ddb30f78451de811f000000000000000000000000cb43c75051f93f95deff5f9a971b8d5109a4f25c000000000000000000000000000000000000000000000000000000000000000001"
        },
        {
            "safe": "0x0c2A08D294026Cd363441240C2ed5D09C93A044F",
            "to": "0x7Af3460d552f832fD7E2DE973c628ACeA59B0712",
            "value": "0",
            "data": "0x42842e0e0000000000000000000000000c2a08d294026cd363441240c2ed5d09c93a044f0000000000000000000000003a55e304d9cf13e45ead6ba3dabccadd3a41935600000000000000000000000000000000000000000000000000000000000001ef",
            "operation": 0,
            "gasToken": "0x0000000000000000000000000000000000000000",
            "safeTxGas": 0,
            "baseGas": 0,
            "gasPrice": "0",
            "refundReceiver": "0x0000000000000000000000000000000000000000",
            "nonce": 9,
            "executionDate": "2022-06-21T23:12:32Z",
            "submissionDate": "2022-06-18T11:16:37.841551Z",
            "modified": "2022-06-21T23:12:32Z",
            "blockNumber": 15004697,
            "transactionHash": "0x318d85a1c54908a783e18a60dd5d2ee441666a79f5e731a173a3dcda7f064d18",
            "safeTxHash": "0x0f9f1b728578e2bc28449f1c1457e7ee42c5824dc6bb321079181c2bf7ea8a6d",
            "executor": "0x76609104852dc5CdB3AEcA438054360A767b7095",
            "isExecuted": true,
            "isSuccessful": true,
            "ethGasPrice": "24997168558",
            "maxFeePerGas": "28000000000",
            "maxPriorityFeePerGas": "2000000000",
            "gasUsed": 133126,
            "fee": "3327773061452308",
            "origin": null,
            "dataDecoded": {
                "method": "safeTransferFrom",
                "parameters": [
                    {
                        "name": "from",
                        "type": "address",
                        "value": "0x0c2A08D294026Cd363441240C2ed5D09C93A044F"
                    },
                    {
                        "name": "to",
                        "type": "address",
                        "value": "0x3a55e304D9cF13E45Ead6BA3DabCcadD3a419356"
                    },
                    {
                        "name": "tokenId",
                        "type": "uint256",
                        "value": "495"
                    }
                ]
            },
            "confirmationsRequired": 3,
            "confirmations": [
                {
                    "owner": "0xA21A42025B394EfACBb45ed1d76fE098464812C1",
                    "submissionDate": "2022-06-18T11:16:37.866437Z",
                    "transactionHash": null,
                    "signature": "0xa3158aad28f3484e8034a032227e6fc837ce8a2fdd57c9f2f3d203141b7868d66f8747a4945c846dd05ac96761c7bfd3ae56b47a312a50f1c57d9b56f6f849fd1f",
                    "signatureType": "ETH_SIGN"
                },
                {
                    "owner": "0xcb43C75051F93F95DEfF5F9A971b8D5109a4f25C",
                    "submissionDate": "2022-06-21T09:48:02.133903Z",
                    "transactionHash": null,
                    "signature": "0xcaf000a41d60bfc071a3d80e63a6054b28a4a607d227de73af89f060dca9376d483c7a1067e9dc87424403d829d7d6a7cc48374ed0a8788f6025f6036bf5f1c91b",
                    "signatureType": "EOA"
                },
                {
                    "owner": "0x76609104852dc5CdB3AEcA438054360A767b7095",
                    "submissionDate": "2022-06-21T23:12:32Z",
                    "transactionHash": null,
                    "signature": "0x00000000000000000000000076609104852dc5cdb3aeca438054360a767b7095000000000000000000000000000000000000000000000000000000000000000001",
                    "signatureType": "APPROVED_HASH"
                }
            ],
            "trusted": true,
            "signatures": "0x00000000000000000000000076609104852dc5cdb3aeca438054360a767b7095000000000000000000000000000000000000000000000000000000000000000001a3158aad28f3484e8034a032227e6fc837ce8a2fdd57c9f2f3d203141b7868d66f8747a4945c846dd05ac96761c7bfd3ae56b47a312a50f1c57d9b56f6f849fd1fcaf000a41d60bfc071a3d80e63a6054b28a4a607d227de73af89f060dca9376d483c7a1067e9dc87424403d829d7d6a7cc48374ed0a8788f6025f6036bf5f1c91b"
        },
        {
            "safe": "0x0c2A08D294026Cd363441240C2ed5D09C93A044F",
            "to": "0xC02aaA39b223FE8D0A0e5C4F27eAD9083C756Cc2",
            "value": "0",
            "data": "0x095ea7b300000000000000000000000059728544b08ab483533076417fbbb2fd0b17ce3affffffffffffffffffffffffffffffffffffffffffffffffffffffffffffffff",
            "operation": 0,
            "gasToken": "0x0000000000000000000000000000000000000000",
            "safeTxGas": 0,
            "baseGas": 0,
            "gasPrice": "0",
            "refundReceiver": "0x0000000000000000000000000000000000000000",
            "nonce": 8,
            "executionDate": "2022-05-05T02:08:11Z",
            "submissionDate": "2022-04-29T12:08:09.396954Z",
            "modified": "2022-05-05T02:08:11Z",
            "blockNumber": 14714532,
            "transactionHash": "0x81d9c54b675e5bfefe32cdac4329c411b4ecc1fc491b856079655bdad45e53fe",
            "safeTxHash": "0x8e371661d6e000f1856a90bb48655b420434367f69207ea69528d9f6c7bc0adc",
            "executor": "0xA21A42025B394EfACBb45ed1d76fE098464812C1",
            "isExecuted": true,
            "isSuccessful": true,
            "ethGasPrice": "57988922698",
            "maxFeePerGas": null,
            "maxPriorityFeePerGas": null,
            "gasUsed": 87742,
            "fee": "5088064055367916",
            "origin": "{\"url\":\"https://apps.gnosis-safe.io/wallet-connect\",\"name\":\"WalletConnect\"}",
            "dataDecoded": {
                "method": "approve",
                "parameters": [
                    {
                        "name": "guy",
                        "type": "address",
                        "value": "0x59728544B08AB483533076417FbBB2fD0B17CE3a"
                    },
                    {
                        "name": "wad",
                        "type": "uint256",
                        "value": "115792089237316195423570985008687907853269984665640564039457584007913129639935"
                    }
                ]
            },
            "confirmationsRequired": 3,
            "confirmations": [
                {
                    "owner": "0x1Df34258bfbF05741C8480599Ab3f94599F9a701",
                    "submissionDate": "2022-04-29T12:08:09.439491Z",
                    "transactionHash": null,
                    "signature": "0x46013664e5df59b302126ca6561959ccb26ae03fd3a1527defd6b0a17f4a08a109db2d64a7daa9178e92d35ccc82b98d7fabee50ac9adf8c01ab4fd58ad36a691c",
                    "signatureType": "EOA"
                },
                {
                    "owner": "0x2B59FD03d176aFC335Fa6D4FBCDf5cF48a6844FB",
                    "submissionDate": "2022-05-04T15:04:42.734863Z",
                    "transactionHash": null,
                    "signature": "0xf124cfd718f903a23081b4afe4f101f2b07b00105d92be641f422cca9df2261039eeeef1f58432751736fe9147e781867db8756c1082ad184afaf70b518b58371c",
                    "signatureType": "EOA"
                },
                {
                    "owner": "0xA21A42025B394EfACBb45ed1d76fE098464812C1",
                    "submissionDate": "2022-05-05T02:08:11Z",
                    "transactionHash": null,
                    "signature": "0x000000000000000000000000a21a42025b394efacbb45ed1d76fe098464812c1000000000000000000000000000000000000000000000000000000000000000001",
                    "signatureType": "APPROVED_HASH"
                }
            ],
            "trusted": true,
            "signatures": "0x46013664e5df59b302126ca6561959ccb26ae03fd3a1527defd6b0a17f4a08a109db2d64a7daa9178e92d35ccc82b98d7fabee50ac9adf8c01ab4fd58ad36a691cf124cfd718f903a23081b4afe4f101f2b07b00105d92be641f422cca9df2261039eeeef1f58432751736fe9147e781867db8756c1082ad184afaf70b518b58371c000000000000000000000000a21a42025b394efacbb45ed1d76fe098464812c1000000000000000000000000000000000000000000000000000000000000000001"
        },
        {
            "safe": "0x0c2A08D294026Cd363441240C2ed5D09C93A044F",
            "to": "0xC02aaA39b223FE8D0A0e5C4F27eAD9083C756Cc2",
            "value": "3000000000000000000",
            "data": "0xd0e30db0",
            "operation": 0,
            "gasToken": "0x0000000000000000000000000000000000000000",
            "safeTxGas": 0,
            "baseGas": 0,
            "gasPrice": "0",
            "refundReceiver": "0x0000000000000000000000000000000000000000",
            "nonce": 7,
            "executionDate": "2022-04-29T07:20:34Z",
            "submissionDate": "2022-04-27T20:34:44.094224Z",
            "modified": "2022-04-29T07:30:18.584560Z",
            "blockNumber": 14677846,
            "transactionHash": "0xb21fd311c414c2f4030848c719fe681fb9be89a40827c39faf27f50afc4c7208",
            "safeTxHash": "0x2f37bbf2c7697007c405180652c8f9e12a132a4975168ca23631bda49a026f6e",
            "executor": "0xA21A42025B394EfACBb45ed1d76fE098464812C1",
            "isExecuted": true,
            "isSuccessful": true,
            "ethGasPrice": "47139983522",
            "maxFeePerGas": null,
            "maxPriorityFeePerGas": null,
            "gasUsed": 93156,
            "fee": "4391372304975432",
            "origin": "{\"url\":\"https://apps.gnosis-safe.io/wallet-connect\",\"name\":\"WalletConnect\"}",
            "dataDecoded": {
                "method": "deposit",
                "parameters": []
            },
            "confirmationsRequired": 3,
            "confirmations": [
                {
                    "owner": "0x1Df34258bfbF05741C8480599Ab3f94599F9a701",
                    "submissionDate": "2022-04-27T20:34:44.127285Z",
                    "transactionHash": null,
                    "signature": "0x92cbd0973cfa9f19d314c16d43b81606df731e3bf4e9dda9bd60f02e3f680ddb0e9cbcdd7af665064610e2e440021605afa104d3d149ba1e5fd3bc0ba913287c1c",
                    "signatureType": "EOA"
                },
                {
                    "owner": "0x2B59FD03d176aFC335Fa6D4FBCDf5cF48a6844FB",
                    "submissionDate": "2022-04-28T17:29:49.296221Z",
                    "transactionHash": null,
                    "signature": "0x5d1eb981eb24e7e1905f0e290eba7d74db772210c8d80ed7f1d0c7fbb7f1d3f0176a74fa2137e568fd0a92b09b827326fc7fb7748c33ae3bc9ddb3a6a8766f101b",
                    "signatureType": "EOA"
                },
                {
                    "owner": "0xA21A42025B394EfACBb45ed1d76fE098464812C1",
                    "submissionDate": "2022-04-29T07:20:34Z",
                    "transactionHash": null,
                    "signature": "0x000000000000000000000000a21a42025b394efacbb45ed1d76fe098464812c1000000000000000000000000000000000000000000000000000000000000000001",
                    "signatureType": "APPROVED_HASH"
                }
            ],
            "trusted": true,
            "signatures": "0x92cbd0973cfa9f19d314c16d43b81606df731e3bf4e9dda9bd60f02e3f680ddb0e9cbcdd7af665064610e2e440021605afa104d3d149ba1e5fd3bc0ba913287c1c5d1eb981eb24e7e1905f0e290eba7d74db772210c8d80ed7f1d0c7fbb7f1d3f0176a74fa2137e568fd0a92b09b827326fc7fb7748c33ae3bc9ddb3a6a8766f101b000000000000000000000000a21a42025b394efacbb45ed1d76fe098464812c1000000000000000000000000000000000000000000000000000000000000000001"
        },
        {
            "safe": "0x0c2A08D294026Cd363441240C2ed5D09C93A044F",
            "to": "0x0c2A08D294026Cd363441240C2ed5D09C93A044F",
            "value": "0",
            "data": "0x0d582f130000000000000000000000002b59fd03d176afc335fa6d4fbcdf5cf48a6844fb0000000000000000000000000000000000000000000000000000000000000003",
            "operation": 0,
            "gasToken": "0x0000000000000000000000000000000000000000",
            "safeTxGas": 0,
            "baseGas": 0,
            "gasPrice": "0",
            "refundReceiver": "0x0000000000000000000000000000000000000000",
            "nonce": 6,
            "executionDate": "2022-04-14T20:58:17Z",
            "submissionDate": "2022-04-14T07:32:33.763766Z",
            "modified": "2022-04-14T20:58:17Z",
            "blockNumber": 14585824,
            "transactionHash": "0xa9cc42bbbc62bed8369bd8ec356f0a94179dd09385c6973016f90296f60a76be",
            "safeTxHash": "0xd1404ddcf589271bb3bf253beadb5a028f58b3faafc8256af2bf49ba9a0c43c3",
            "executor": "0x76609104852dc5CdB3AEcA438054360A767b7095",
            "isExecuted": true,
            "isSuccessful": true,
            "ethGasPrice": "51654292871",
            "maxFeePerGas": null,
            "maxPriorityFeePerGas": null,
            "gasUsed": 95598,
            "fee": "4938047089881858",
            "origin": null,
            "dataDecoded": {
                "method": "addOwnerWithThreshold",
                "parameters": [
                    {
                        "name": "owner",
                        "type": "address",
                        "value": "0x2B59FD03d176aFC335Fa6D4FBCDf5cF48a6844FB"
                    },
                    {
                        "name": "_threshold",
                        "type": "uint256",
                        "value": "3"
                    }
                ]
            },
            "confirmationsRequired": 3,
            "confirmations": [
                {
                    "owner": "0x1Df34258bfbF05741C8480599Ab3f94599F9a701",
                    "submissionDate": "2022-04-14T07:32:38.641860Z",
                    "transactionHash": null,
                    "signature": "0x180e81f4d2bb323d6fe6d1aed426b01d3c285d53a4653847ecaf1cfcd63d9f541d2b6591e17f60bebc82ee3f1b87ab782530c78cafd6090a1f2fb671c80b68f01c",
                    "signatureType": "EOA"
                },
                {
                    "owner": "0xA21A42025B394EfACBb45ed1d76fE098464812C1",
                    "submissionDate": "2022-04-14T14:03:38.345755Z",
                    "transactionHash": null,
                    "signature": "0x51b334f7e18e498bdea523e1a11720ea2b247d5ac65030b92a65572872a52107167aa68cec5bcb9155230f87d2ab5616a4c91a21a01746f0a3043df9a9985e7520",
                    "signatureType": "ETH_SIGN"
                },
                {
                    "owner": "0x76609104852dc5CdB3AEcA438054360A767b7095",
                    "submissionDate": "2022-04-14T20:58:17Z",
                    "transactionHash": null,
                    "signature": "0x00000000000000000000000076609104852dc5cdb3aeca438054360a767b7095000000000000000000000000000000000000000000000000000000000000000001",
                    "signatureType": "APPROVED_HASH"
                }
            ],
            "trusted": true,
            "signatures": "0x180e81f4d2bb323d6fe6d1aed426b01d3c285d53a4653847ecaf1cfcd63d9f541d2b6591e17f60bebc82ee3f1b87ab782530c78cafd6090a1f2fb671c80b68f01c00000000000000000000000076609104852dc5cdb3aeca438054360a767b709500000000000000000000000000000000000000000000000000000000000000000151b334f7e18e498bdea523e1a11720ea2b247d5ac65030b92a65572872a52107167aa68cec5bcb9155230f87d2ab5616a4c91a21a01746f0a3043df9a9985e7520"
        },
        {
            "safe": "0x0c2A08D294026Cd363441240C2ed5D09C93A044F",
            "to": "0xc92836BC3201F2784fae26875Ac1C1d5acA0aef2",
            "value": "0",
            "data": "0xb755e4dc0000000000000000000000000a447ae050cdefe6f38ff54ab12c82b15db2c96500000000000000000000000000000000000000000000000000000000621e9fc60000000000000000000000000000000000000000000000000000000062968fe00000000000000000000000000000000000000000000000000000000000000063000000000000000000000000000000000000000000084595161401484a00000000000000000000000000000000000000000000000000000000000000000000000000000000000000000000000000000000000000000000000000000000000000",
            "operation": 0,
            "gasToken": "0x0000000000000000000000000000000000000000",
            "safeTxGas": 0,
            "baseGas": 0,
            "gasPrice": "0",
            "refundReceiver": "0x0000000000000000000000000000000000000000",
            "nonce": 5,
            "executionDate": "2022-04-14T14:11:07Z",
            "submissionDate": "2022-04-08T16:27:50.503952Z",
            "modified": "2022-04-14T14:11:07Z",
            "blockNumber": 14583980,
            "transactionHash": "0xc1f7c736a760b1e3fe9c3a8fc13b94a0f9405b5ed86d32fab36f5db9704a52ca",
            "safeTxHash": "0x073b90e8ef5a95a68861e8ba135b519f5c8408466cc414dfb7661f2992138952",
            "executor": "0xA21A42025B394EfACBb45ed1d76fE098464812C1",
            "isExecuted": true,
            "isSuccessful": true,
            "ethGasPrice": "79670032522",
            "maxFeePerGas": null,
            "maxPriorityFeePerGas": null,
            "gasUsed": 97434,
            "fee": "7762569948748548",
            "origin": "{\"url\":\"https://apps.gnosis-safe.io/wallet-connect\",\"name\":\"WalletConnect\"}",
            "dataDecoded": null,
            "confirmationsRequired": 3,
            "confirmations": [
                {
                    "owner": "0x1Df34258bfbF05741C8480599Ab3f94599F9a701",
                    "submissionDate": "2022-04-08T16:27:50.531624Z",
                    "transactionHash": null,
                    "signature": "0x6556497a42d4a36fd53656c8cf9ee653dc7951ef7c765fe4995ed7bedad296163bd386dbb2c822183578bd5796082c18a8b89601d9b4ab6d3646cc6547f308e31b",
                    "signatureType": "EOA"
                },
                {
                    "owner": "0x76609104852dc5CdB3AEcA438054360A767b7095",
                    "submissionDate": "2022-04-09T07:21:48.165719Z",
                    "transactionHash": null,
                    "signature": "0xa6c728550e9538d1d97dd174d8fe860c73160972e8ec65e9382655e18df1a7357474bf304c7df4249132f6ca56e5bd68db5c00787cfdb13f49d160d9a4ae27231c",
                    "signatureType": "EOA"
                },
                {
                    "owner": "0xA21A42025B394EfACBb45ed1d76fE098464812C1",
                    "submissionDate": "2022-04-14T14:11:07Z",
                    "transactionHash": null,
                    "signature": "0x000000000000000000000000a21a42025b394efacbb45ed1d76fe098464812c1000000000000000000000000000000000000000000000000000000000000000001",
                    "signatureType": "APPROVED_HASH"
                }
            ],
            "trusted": true,
            "signatures": "0x6556497a42d4a36fd53656c8cf9ee653dc7951ef7c765fe4995ed7bedad296163bd386dbb2c822183578bd5796082c18a8b89601d9b4ab6d3646cc6547f308e31ba6c728550e9538d1d97dd174d8fe860c73160972e8ec65e9382655e18df1a7357474bf304c7df4249132f6ca56e5bd68db5c00787cfdb13f49d160d9a4ae27231c000000000000000000000000a21a42025b394efacbb45ed1d76fe098464812c1000000000000000000000000000000000000000000000000000000000000000001"
        },
        {
            "safe": "0x0c2A08D294026Cd363441240C2ed5D09C93A044F",
            "to": "0x3a55e304D9cF13E45Ead6BA3DabCcadD3a419356",
            "value": "450000000000000000",
            "data": null,
            "operation": 0,
            "gasToken": "0x0000000000000000000000000000000000000000",
            "safeTxGas": 0,
            "baseGas": 0,
            "gasPrice": "0",
            "refundReceiver": "0x0000000000000000000000000000000000000000",
            "nonce": 4,
            "executionDate": "2022-04-08T07:53:01Z",
            "submissionDate": "2022-04-06T06:58:02.384653Z",
            "modified": "2022-04-08T07:53:01Z",
            "blockNumber": 14543906,
            "transactionHash": "0xfdf9d433062ebe111ad27a2c40ee4181c30e6e64710b5bce6c5fe0f8f18ff479",
            "safeTxHash": "0x828afcc5e5ca66849d7398e53104735bcc883110adcfb49c7c0f5b1f1994e088",
            "executor": "0xA21A42025B394EfACBb45ed1d76fE098464812C1",
            "isExecuted": true,
            "isSuccessful": true,
            "ethGasPrice": "48395687754",
            "maxFeePerGas": null,
            "maxPriorityFeePerGas": null,
            "gasUsed": 68976,
            "fee": "3338140958519904",
            "origin": null,
            "dataDecoded": null,
            "confirmationsRequired": 3,
            "confirmations": [
                {
                    "owner": "0x1Df34258bfbF05741C8480599Ab3f94599F9a701",
                    "submissionDate": "2022-04-06T06:58:02.424071Z",
                    "transactionHash": null,
                    "signature": "0xbbd9bccfebe254d069786564ba7d791635c37fdbf77503f5eb82ba58dcb3c56c41575013da96e9ea5a04d0891321066ea34a8555e287fca2536d6cb9f8aa15ae1c",
                    "signatureType": "EOA"
                },
                {
                    "owner": "0x76609104852dc5CdB3AEcA438054360A767b7095",
                    "submissionDate": "2022-04-06T15:19:43.472323Z",
                    "transactionHash": null,
                    "signature": "0x621d6b52fbc74401965e60e80a6fd8ac927aa4486f225661fc93c79f37fdaeb50e36918d400ee913a7d099b737ae3437f7be2207548b80dcd0bd6c8385a2eacb1b",
                    "signatureType": "EOA"
                },
                {
                    "owner": "0xA21A42025B394EfACBb45ed1d76fE098464812C1",
                    "submissionDate": "2022-04-08T07:53:01Z",
                    "transactionHash": null,
                    "signature": "0x000000000000000000000000a21a42025b394efacbb45ed1d76fe098464812c1000000000000000000000000000000000000000000000000000000000000000001",
                    "signatureType": "APPROVED_HASH"
                }
            ],
            "trusted": true,
            "signatures": "0xbbd9bccfebe254d069786564ba7d791635c37fdbf77503f5eb82ba58dcb3c56c41575013da96e9ea5a04d0891321066ea34a8555e287fca2536d6cb9f8aa15ae1c621d6b52fbc74401965e60e80a6fd8ac927aa4486f225661fc93c79f37fdaeb50e36918d400ee913a7d099b737ae3437f7be2207548b80dcd0bd6c8385a2eacb1b000000000000000000000000a21a42025b394efacbb45ed1d76fe098464812c1000000000000000000000000000000000000000000000000000000000000000001"
        },
        {
            "safe": "0x0c2A08D294026Cd363441240C2ed5D09C93A044F",
            "to": "0x0c2A08D294026Cd363441240C2ed5D09C93A044F",
            "value": "0",
            "data": "0x0d582f13000000000000000000000000a21a42025b394efacbb45ed1d76fe098464812c10000000000000000000000000000000000000000000000000000000000000003",
            "operation": 0,
            "gasToken": "0x0000000000000000000000000000000000000000",
            "safeTxGas": 0,
            "baseGas": 0,
            "gasPrice": "0",
            "refundReceiver": "0x0000000000000000000000000000000000000000",
            "nonce": 3,
            "executionDate": "2022-04-06T15:15:45Z",
            "submissionDate": "2022-04-06T06:50:52.375220Z",
            "modified": "2022-04-06T15:15:45Z",
            "blockNumber": 14533058,
            "transactionHash": "0xa8cd1296f41a07efa7d78e90f32c4563f3547189e4ac770886889342a70ad5aa",
            "safeTxHash": "0xe8ff46cef32a00aa997836e12e50694f1e148b01ef66348c8ee9bdb1964c0bf8",
            "executor": "0xcb43C75051F93F95DEfF5F9A971b8D5109a4f25C",
            "isExecuted": true,
            "isSuccessful": true,
            "ethGasPrice": "72999682739",
            "maxFeePerGas": null,
            "maxPriorityFeePerGas": null,
            "gasUsed": 92671,
            "fee": "6764953599105869",
            "origin": null,
            "dataDecoded": {
                "method": "addOwnerWithThreshold",
                "parameters": [
                    {
                        "name": "owner",
                        "type": "address",
                        "value": "0xA21A42025B394EfACBb45ed1d76fE098464812C1"
                    },
                    {
                        "name": "_threshold",
                        "type": "uint256",
                        "value": "3"
                    }
                ]
            },
            "confirmationsRequired": 2,
            "confirmations": [
                {
                    "owner": "0x1Df34258bfbF05741C8480599Ab3f94599F9a701",
                    "submissionDate": "2022-04-06T06:50:52.402210Z",
                    "transactionHash": null,
                    "signature": "0x082c9dd4edff0ec36674ff87a3676d559c0457f1be952fc92ce60fc4810d50022d1c29efe0fcf47e6f0cb5799a48211116f5e03cdcf1525737dae685781d140a1b",
                    "signatureType": "EOA"
                },
                {
                    "owner": "0xcb43C75051F93F95DEfF5F9A971b8D5109a4f25C",
                    "submissionDate": "2022-04-06T15:15:45Z",
                    "transactionHash": null,
                    "signature": "0x000000000000000000000000cb43c75051f93f95deff5f9a971b8d5109a4f25c000000000000000000000000000000000000000000000000000000000000000001",
                    "signatureType": "APPROVED_HASH"
                }
            ],
            "trusted": true,
            "signatures": "0x082c9dd4edff0ec36674ff87a3676d559c0457f1be952fc92ce60fc4810d50022d1c29efe0fcf47e6f0cb5799a48211116f5e03cdcf1525737dae685781d140a1b000000000000000000000000cb43c75051f93f95deff5f9a971b8d5109a4f25c000000000000000000000000000000000000000000000000000000000000000001"
        },
        {
            "safe": "0x0c2A08D294026Cd363441240C2ed5D09C93A044F",
            "to": "0x0c2A08D294026Cd363441240C2ed5D09C93A044F",
            "value": "0",
            "data": null,
            "operation": 0,
            "gasToken": "0x0000000000000000000000000000000000000000",
            "safeTxGas": 0,
            "baseGas": 0,
            "gasPrice": "0",
            "refundReceiver": "0x0000000000000000000000000000000000000000",
            "nonce": 4,
            "executionDate": null,
            "submissionDate": "2022-04-06T07:00:11.202200Z",
            "modified": "2022-04-06T07:00:11.248688Z",
            "blockNumber": null,
            "transactionHash": null,
            "safeTxHash": "0xf6d8dbff10197b9cf549c6a9c345cfb6f26d52d56982311986250b400a7a5472",
            "executor": null,
            "isExecuted": false,
            "isSuccessful": null,
            "ethGasPrice": null,
            "maxFeePerGas": null,
            "maxPriorityFeePerGas": null,
            "gasUsed": null,
            "fee": null,
            "origin": null,
            "dataDecoded": null,
            "confirmationsRequired": 3,
            "confirmations": [
                {
                    "owner": "0x1Df34258bfbF05741C8480599Ab3f94599F9a701",
                    "submissionDate": "2022-04-06T07:00:11.248688Z",
                    "transactionHash": null,
                    "signature": "0xcd25829011ed299a61fb56649179b4125107a591e8899335069ea1abbbce16c557ca21c42565717f4864337d7d8c2dd70d21e6bc315ab0af98f69a07758ee9bd1b",
                    "signatureType": "EOA"
                }
            ],
            "trusted": true,
            "signatures": null
        },
        {
            "safe": "0x0c2A08D294026Cd363441240C2ed5D09C93A044F",
            "to": "0x0c2A08D294026Cd363441240C2ed5D09C93A044F",
            "value": "0",
            "data": "0x0d582f1300000000000000000000000076609104852dc5cdb3aeca438054360a767b70950000000000000000000000000000000000000000000000000000000000000002",
            "operation": 0,
            "gasToken": "0x0000000000000000000000000000000000000000",
            "safeTxGas": 0,
            "baseGas": 0,
            "gasPrice": "0",
            "refundReceiver": "0x0000000000000000000000000000000000000000",
            "nonce": 2,
            "executionDate": "2022-03-02T11:45:22Z",
            "submissionDate": "2022-03-02T11:40:24.240566Z",
            "modified": "2022-03-02T11:46:43.770813Z",
            "blockNumber": 14307382,
            "transactionHash": "0xb7bbde7bc4d4caf57feb8b51bbcd4725c353205d68fec652fdf6f29b8dbda67f",
            "safeTxHash": "0x54ff98be392bc87247c54ca821fd3e86e63e0be0d24ec495d6e380f10c3a125e",
            "executor": "0x1Df34258bfbF05741C8480599Ab3f94599F9a701",
            "isExecuted": true,
            "isSuccessful": true,
            "ethGasPrice": "28000000000",
            "maxFeePerGas": null,
            "maxPriorityFeePerGas": null,
            "gasUsed": 89387,
            "fee": "2502836000000000",
            "origin": null,
            "dataDecoded": {
                "method": "addOwnerWithThreshold",
                "parameters": [
                    {
                        "name": "owner",
                        "type": "address",
                        "value": "0x76609104852dc5CdB3AEcA438054360A767b7095"
                    },
                    {
                        "name": "_threshold",
                        "type": "uint256",
                        "value": "2"
                    }
                ]
            },
            "confirmationsRequired": 1,
            "confirmations": [
                {
                    "owner": "0x1Df34258bfbF05741C8480599Ab3f94599F9a701",
                    "submissionDate": "2022-03-02T11:40:24.267142Z",
                    "transactionHash": null,
                    "signature": "0xb33c8aad30de3b42531e10b8cdeb8681aee01d26381f13350446175524b9b97116c6afe1face8100ade75f2b979144d268afd76c93c8e936ec1524a6410034581b",
                    "signatureType": "EOA"
                }
            ],
            "trusted": true,
            "signatures": "0xb33c8aad30de3b42531e10b8cdeb8681aee01d26381f13350446175524b9b97116c6afe1face8100ade75f2b979144d268afd76c93c8e936ec1524a6410034581b"
        },
        {
            "safe": "0x0c2A08D294026Cd363441240C2ed5D09C93A044F",
            "to": "0x0c2A08D294026Cd363441240C2ed5D09C93A044F",
            "value": "0",
            "data": "0xf8dc5dd9000000000000000000000000cb43c75051f93f95deff5f9a971b8d5109a4f25c000000000000000000000000004de26add64917640435ffa1ba240000d62da250000000000000000000000000000000000000000000000000000000000000001",
            "operation": 0,
            "gasToken": "0x0000000000000000000000000000000000000000",
            "safeTxGas": 0,
            "baseGas": 0,
            "gasPrice": "0",
            "refundReceiver": "0x0000000000000000000000000000000000000000",
            "nonce": 1,
            "executionDate": "2022-03-02T11:42:39Z",
            "submissionDate": "2022-03-02T11:15:27.314881Z",
            "modified": "2022-03-02T11:44:13.452181Z",
            "blockNumber": 14307370,
            "transactionHash": "0xcb127a6c257a5b8594d1bc2bf1494006e41059d80ad7c65ec24726118d4b44b4",
            "safeTxHash": "0x5c4d89e6d2ba9a05cf2f98397f53d8f48290d245ef9211b0b7611450ce65d8ad",
            "executor": "0x1Df34258bfbF05741C8480599Ab3f94599F9a701",
            "isExecuted": true,
            "isSuccessful": true,
            "ethGasPrice": "30812097984",
            "maxFeePerGas": null,
            "maxPriorityFeePerGas": null,
            "gasUsed": 63735,
            "fee": "1963809065010240",
            "origin": null,
            "dataDecoded": {
                "method": "removeOwner",
                "parameters": [
                    {
                        "name": "prevOwner",
                        "type": "address",
                        "value": "0xcb43C75051F93F95DEfF5F9A971b8D5109a4f25C"
                    },
                    {
                        "name": "owner",
                        "type": "address",
                        "value": "0x004DE26ADD64917640435fFa1bA240000d62da25"
                    },
                    {
                        "name": "_threshold",
                        "type": "uint256",
                        "value": "1"
                    }
                ]
            },
            "confirmationsRequired": 1,
            "confirmations": [
                {
                    "owner": "0x1Df34258bfbF05741C8480599Ab3f94599F9a701",
                    "submissionDate": "2022-03-02T11:15:27.353393Z",
                    "transactionHash": null,
                    "signature": "0x0c724bfde30c3c25623698d97c11a595cd2f4b4b9553fd3de3add7c0a4253c0a640a7cffbe3ffd1f8cb278a717f52c0cb4facb4972a36cea1a44c0ef40574c611c",
                    "signatureType": "EOA"
                }
            ],
            "trusted": true,
            "signatures": "0x0c724bfde30c3c25623698d97c11a595cd2f4b4b9553fd3de3add7c0a4253c0a640a7cffbe3ffd1f8cb278a717f52c0cb4facb4972a36cea1a44c0ef40574c611c"
        },
        {
            "safe": "0x0c2A08D294026Cd363441240C2ed5D09C93A044F",
            "to": "0x2372Fd8d69dA29b4B328b518C6D7e84F3aa25Dc3",
            "value": "0",
            "data": "0xdcc4bd020000000000000000000000000000000000000000000000000000000000000100000000000000000000000000000000000000000000000000000000000000014000000000000000000000000000000000000000000000000000000000621e9fc600000000000000000000000000000000000000000000000000000000624624240000000000000000000000000000000000000000000000000000000000000063000000000000000000000000000000000000000000084595161401484a000000000000000000000000000000000000000000000000000000000000000000000000000000000000000000000000000000000000000000000000000000000000000000000000000000000000000000000000000000000000000000000000000009546865204368657374000000000000000000000000000000000000000000000000000000000000000000000000000000000000000000000000000000000000054348455354000000000000000000000000000000000000000000000000000000",
            "operation": 0,
            "gasToken": "0x0000000000000000000000000000000000000000",
            "safeTxGas": 0,
            "baseGas": 0,
            "gasPrice": "0",
            "refundReceiver": "0x0000000000000000000000000000000000000000",
            "nonce": 0,
            "executionDate": "2022-03-01T22:53:21Z",
            "submissionDate": "2022-03-01T22:36:48.068858Z",
            "modified": "2022-03-01T22:53:21Z",
            "blockNumber": 14303964,
            "transactionHash": "0xa55da3e263ee0ee9a2b804419fc3840deeec374842ca73eef90b40e20e48ed12",
            "safeTxHash": "0x83e62481ad9f4cc0a473dfa3437355fc635f6e34ea563f8a4d44d4e82c1dc74b",
            "executor": "0x1Df34258bfbF05741C8480599Ab3f94599F9a701",
            "isExecuted": true,
            "isSuccessful": true,
            "ethGasPrice": "32000000000",
            "maxFeePerGas": null,
            "maxPriorityFeePerGas": null,
            "gasUsed": 448369,
            "fee": "14347808000000000",
            "origin": "{\"url\":\"https://apps.gnosis-safe.io/wallet-connect\",\"name\":\"WalletConnect\"}",
            "dataDecoded": null,
            "confirmationsRequired": 1,
            "confirmations": [
                {
                    "owner": "0x1Df34258bfbF05741C8480599Ab3f94599F9a701",
                    "submissionDate": "2022-03-01T22:53:21Z",
                    "transactionHash": null,
                    "signature": "0x0000000000000000000000001df34258bfbf05741c8480599ab3f94599f9a701000000000000000000000000000000000000000000000000000000000000000001",
                    "signatureType": "APPROVED_HASH"
                }
            ],
            "trusted": true,
            "signatures": "0x0000000000000000000000001df34258bfbf05741c8480599ab3f94599f9a701000000000000000000000000000000000000000000000000000000000000000001"
        }
    ],
    "countUniqueNonce": 13
}