{
  "count": 1,
  "next": null,
  "previous": null,
  "results": [
    {
      "safe": "0x0c2A08D294026Cd363441240C2ed5D09C93A044F",
      "to": "0x40A2aCCbd92BCA938b02010E17A5b8929b49130D",
      "value": "0",
      "data": "0x8d80ff0a0000000000000000000000000000000000000000000000000000000000000020000000000000000000000000000000000000000000000000000000000000046b00469788fe6e9e9681c6ebf3bf78e7fd26fc01544600000000000000000000000000000000000000000000000000000000000000000000000000000000000000000000000000000000000000000000000000000044bd86e508736166652e65746800000000000000000000000000000000000000000000000000000000000000000000000077f0ce5c117ae6710d323d8360602738760cbb6d00a0b937d5c8e32a80e3a8ed4227cd020221544ee6000000000000000000000000000000000000000000000000000000000000000000000000000000000000000000000000000000000000000000000000000002c4bf6213e4000000000000000000000000000000000000000000000000000000000000000000000000000000000000000000000000000000000000000000000000000001a0000000000000000000000000000000000000000000000000000000005bacaa20000000000000000000000000000000000000000000000055f1b323e050f8000000000000000000000000000000000000000000000000000000000000000000a0000000000000000000000000000000000000000000000000000000000000001054fd04b101ee35d3a86dbd6e5bce077281b29ecb1b300feb9a9c8b4996405c1e4f69a80c7d87c4bd37ecbbc466dba98335f7cad00607b950fdaa5f26b4fee03f2eb117a1e5b7234180c7a18bc52a19a77b676fea7cd7947d7951a2de60acde3fc8ac6573f7acd5b2fb10770978c6b2af24eea23f422b39a6bc89b1cd88652690657a6bbf7923b42543e71b9c436ca3bee0a954fe3411a895bdc6f08a41b19dc0dc4c8b6a5d0f073fed715c924c054c75691c44333d364325ee23a6799a09ac25ce5ed104c21c97fdc4a3e7aa6bff2ad8ef3c150c3580602183c98f31726819184b8845a6127fede160c47d87af9f53f3979a5bfa725172e185d7218b3709e169b82c1d78d367d3335338e462caf5fdb5fd34e1032bc4096332bd5e2753c2e46c483eba6977ee22a1669c635b33b7bc406ecddd37369b8ef5fa6a3d3d615ad38f5d547e62a5c7a14c5f3ead0f809f7ef00511071bb14df5e53e7042939f768ca8193c829fd87b118d11e737c3902cfe190348fa0b8d0d7aa9775653b97a213cb4d6c78151484cc00bc2945b3ae0ef71c700b50feedc1ab1e96c22e7401c774703531b401cf833453be5e19f3ee07df93c01947c0e49c7669d3751b2b97496f1366b3e88b74da169ca93e56f322d7b2ab8416495d64a8a9f57d0ca443d995b2364f8e2791b9d07b3e620189a36bf17e30c874e66b205c79492a16cd5a9c5bb65b700a0b937d5c8e32a80e3a8ed4227cd020221544ee6000000000000000000000000000000000000000000000000000000000000000000000000000000000000000000000000000000000000000000000000000000640087b83f27b587e4206f5c6e797ec419d882781a18b93656a83db2ff2ff1fdc435e6518b0000000000000000000000000c2a08d294026cd363441240c2ed5d09c93a044f00000000000000000000000000000000ffffffffffffffffffffffffffffffff000000000000000000000000000000000000000000",
      "operation": 1,
      "gasToken": "0x0000000000000000000000000000000000000000",
      "safeTxGas": 0,
      "baseGas": 0,
      "gasPrice": "0",
      "refundReceiver": "0x0000000000000000000000000000000000000000",
      "nonce": 12,
      "executionDate": "2022-10-04T22:27:47Z",
      "submissionDate": "2022-09-28T10:27:32.872376Z",
      "modified": "2022-10-04T22:27:47Z",
      "blockNumber": 15677740,
      "transactionHash": "0x169e6a7b8e7cfe4be71881bc9b8a92cfef8973deafc60b5b0fb471886611dd3c",
      "safeTxHash": "0xe5d12a76416195e1bef2db7376ccabc5e2e904f20211c3b08f9036d742f06810",
      "executor": "0x2B59FD03d176aFC335Fa6D4FBCDf5cF48a6844FB",
      "isExecuted": true,
      "isSuccessful": true,
      "ethGasPrice": "10000000000",
      "maxFeePerGas": null,
      "maxPriorityFeePerGas": null,
      "gasUsed": 255136,
      "fee": "2551360000000000",
      "origin": "{\"url\":\"https://apps.gnosis-safe.io/safe-claiming-app\",\"name\":\"$SAFE Claiming App\"}",
      "dataDecoded": {
        "method": "multiSend",
        "parameters": [
          {
            "name": "transactions",
            "type": "bytes",
            "value": "0x00469788fe6e9e9681c6ebf3bf78e7fd26fc01544600000000000000000000000000000000000000000000000000000000000000000000000000000000000000000000000000000000000000000000000000000044bd86e508736166652e65746800000000000000000000000000000000000000000000000000000000000000000000000077f0ce5c117ae6710d323d8360602738760cbb6d00a0b937d5c8e32a80e3a8ed4227cd020221544ee6000000000000000000000000000000000000000000000000000000000000000000000000000000000000000000000000000000000000000000000000000002c4bf6213e4000000000000000000000000000000000000000000000000000000000000000000000000000000000000000000000000000000000000000000000000000001a0000000000000000000000000000000000000000000000000000000005bacaa20000000000000000000000000000000000000000000000055f1b323e050f8000000000000000000000000000000000000000000000000000000000000000000a0000000000000000000000000000000000000000000000000000000000000001054fd04b101ee35d3a86dbd6e5bce077281b29ecb1b300feb9a9c8b4996405c1e4f69a80c7d87c4bd37ecbbc466dba98335f7cad00607b950fdaa5f26b4fee03f2eb117a1e5b7234180c7a18bc52a19a77b676fea7cd7947d7951a2de60acde3fc8ac6573f7acd5b2fb10770978c6b2af24eea23f422b39a6bc89b1cd88652690657a6bbf7923b42543e71b9c436ca3bee0a954fe3411a895bdc6f08a41b19dc0dc4c8b6a5d0f073fed715c924c054c75691c44333d364325ee23a6799a09ac25ce5ed104c21c97fdc4a3e7aa6bff2ad8ef3c150c3580602183c98f31726819184b8845a6127fede160c47d87af9f53f3979a5bfa725172e185d7218b3709e169b82c1d78d367d3335338e462caf5fdb5fd34e1032bc4096332bd5e2753c2e46c483eba6977ee22a1669c635b33b7bc406ecddd37369b8ef5fa6a3d3d615ad38f5d547e62a5c7a14c5f3ead0f809f7ef00511071bb14df5e53e7042939f768ca8193c829fd87b118d11e737c3902cfe190348fa0b8d0d7aa9775653b97a213cb4d6c78151484cc00bc2945b3ae0ef71c700b50feedc1ab1e96c22e7401c774703531b401cf833453be5e19f3ee07df93c01947c0e49c7669d3751b2b97496f1366b3e88b74da169ca93e56f322d7b2ab8416495d64a8a9f57d0ca443d995b2364f8e2791b9d07b3e620189a36bf17e30c874e66b205c79492a16cd5a9c5bb65b700a0b937d5c8e32a80e3a8ed4227cd020221544ee6000000000000000000000000000000000000000000000000000000000000000000000000000000000000000000000000000000000000000000000000000000640087b83f27b587e4206f5c6e797ec419d882781a18b93656a83db2ff2ff1fdc435e6518b0000000000000000000000000c2a08d294026cd363441240c2ed5d09c93a044f00000000000000000000000000000000ffffffffffffffffffffffffffffffff",
            "valueDecoded": [
              {
                "operation": 0,
                "to": "0x469788fE6E9E9681C6ebF3bF78e7Fd26Fc015446",
                "value": "0",
                "data": "0xbd86e508736166652e65746800000000000000000000000000000000000000000000000000000000000000000000000077f0ce5c117ae6710d323d8360602738760cbb6d",
                "dataDecoded": {
                  "method": "setDelegate",
                  "parameters": [
                    {
                      "name": "id",
                      "type": "bytes32",
                      "value": "0x736166652e657468000000000000000000000000000000000000000000000000"
                    },
                    {
                      "name": "delegate",
                      "type": "address",
                      "value": "0x77f0Ce5c117AE6710d323D8360602738760CBB6d"
                    }
                  ]
                }
              },
              {
                "operation": 0,
                "to": "0xA0b937D5c8E32a80E3a8ed4227CD020221544ee6",
                "value": "0",
                "data": "0xbf6213e4000000000000000000000000000000000000000000000000000000000000000000000000000000000000000000000000000000000000000000000000000001a0000000000000000000000000000000000000000000000000000000005bacaa20000000000000000000000000000000000000000000000055f1b323e050f8000000000000000000000000000000000000000000000000000000000000000000a0000000000000000000000000000000000000000000000000000000000000001054fd04b101ee35d3a86dbd6e5bce077281b29ecb1b300feb9a9c8b4996405c1e4f69a80c7d87c4bd37ecbbc466dba98335f7cad00607b950fdaa5f26b4fee03f2eb117a1e5b7234180c7a18bc52a19a77b676fea7cd7947d7951a2de60acde3fc8ac6573f7acd5b2fb10770978c6b2af24eea23f422b39a6bc89b1cd88652690657a6bbf7923b42543e71b9c436ca3bee0a954fe3411a895bdc6f08a41b19dc0dc4c8b6a5d0f073fed715c924c054c75691c44333d364325ee23a6799a09ac25ce5ed104c21c97fdc4a3e7aa6bff2ad8ef3c150c3580602183c98f31726819184b8845a6127fede160c47d87af9f53f3979a5bfa725172e185d7218b3709e169b82c1d78d367d3335338e462caf5fdb5fd34e1032bc4096332bd5e2753c2e46c483eba6977ee22a1669c635b33b7bc406ecddd37369b8ef5fa6a3d3d615ad38f5d547e62a5c7a14c5f3ead0f809f7ef00511071bb14df5e53e7042939f768ca8193c829fd87b118d11e737c3902cfe190348fa0b8d0d7aa9775653b97a213cb4d6c78151484cc00bc2945b3ae0ef71c700b50feedc1ab1e96c22e7401c774703531b401cf833453be5e19f3ee07df93c01947c0e49c7669d3751b2b97496f1366b3e88b74da169ca93e56f322d7b2ab8416495d64a8a9f57d0ca443d995b2364f8e2791b9d07b3e620189a36bf17e30c874e66b205c79492a16cd5a9c5bb65b7",
                "dataDecoded": {
                  "method": "redeem",
                  "parameters": [
                    {
                      "name": "curveType",
                      "type": "uint8",
                      "value": "0"
                    },
                    {
                      "name": "durationWeeks",
                      "type": "uint16",
                      "value": "416"
                    },
                    {
                      "name": "startDate",
                      "type": "uint64",
                      "value": "1538042400"
                    },
                    {
                      "name": "amount",
                      "type": "uint128",
                      "value": "1585389549895621804032"
                    },
                    {
                      "name": "proof",
                      "type": "bytes32[]",
                      "value": [
                        "0x54fd04b101ee35d3a86dbd6e5bce077281b29ecb1b300feb9a9c8b4996405c1e",
                        "0x4f69a80c7d87c4bd37ecbbc466dba98335f7cad00607b950fdaa5f26b4fee03f",
                        "0x2eb117a1e5b7234180c7a18bc52a19a77b676fea7cd7947d7951a2de60acde3f",
                        "0xc8ac6573f7acd5b2fb10770978c6b2af24eea23f422b39a6bc89b1cd88652690",
                        "0x657a6bbf7923b42543e71b9c436ca3bee0a954fe3411a895bdc6f08a41b19dc0",
                        "0xdc4c8b6a5d0f073fed715c924c054c75691c44333d364325ee23a6799a09ac25",
                        "0xce5ed104c21c97fdc4a3e7aa6bff2ad8ef3c150c3580602183c98f3172681918",
                        "0x4b8845a6127fede160c47d87af9f53f3979a5bfa725172e185d7218b3709e169",
                        "0xb82c1d78d367d3335338e462caf5fdb5fd34e1032bc4096332bd5e2753c2e46c",
                        "0x483eba6977ee22a1669c635b33b7bc406ecddd37369b8ef5fa6a3d3d615ad38f",
                        "0x5d547e62a5c7a14c5f3ead0f809f7ef00511071bb14df5e53e7042939f768ca8",
                        "0x193c829fd87b118d11e737c3902cfe190348fa0b8d0d7aa9775653b97a213cb4",
                        "0xd6c78151484cc00bc2945b3ae0ef71c700b50feedc1ab1e96c22e7401c774703",
                        "0x531b401cf833453be5e19f3ee07df93c01947c0e49c7669d3751b2b97496f136",
                        "0x6b3e88b74da169ca93e56f322d7b2ab8416495d64a8a9f57d0ca443d995b2364",
                        "0xf8e2791b9d07b3e620189a36bf17e30c874e66b205c79492a16cd5a9c5bb65b7"
                      ]
                    }
                  ]
                }
              },
              {
                "operation": 0,
                "to": "0xA0b937D5c8E32a80E3a8ed4227CD020221544ee6",
                "value": "0",
                "data": "0x0087b83f27b587e4206f5c6e797ec419d882781a18b93656a83db2ff2ff1fdc435e6518b0000000000000000000000000c2a08d294026cd363441240c2ed5d09c93a044f00000000000000000000000000000000ffffffffffffffffffffffffffffffff",
                "dataDecoded": {
                  "method": "claimVestedTokensViaModule",
                  "parameters": [
                    {
                      "name": "vestingId",
                      "type": "bytes32",
                      "value": "0x27b587e4206f5c6e797ec419d882781a18b93656a83db2ff2ff1fdc435e6518b"
                    },
                    {
                      "name": "beneficiary",
                      "type": "address",
                      "value": "0x0c2A08D294026Cd363441240C2ed5D09C93A044F"
                    },
                    {
                      "name": "tokensToClaim",
                      "type": "uint128",
                      "value": "340282366920938463463374607431768211455"
                    }
                  ]
                }
              }
            ]
          }
        ]
      },
      "confirmationsRequired": 3,
      "confirmations": [
        {
          "owner": "0xcb43C75051F93F95DEfF5F9A971b8D5109a4f25C",
          "submissionDate": "2022-09-28T10:27:32.897066Z",
          "transactionHash": null,
          "signature": "0xd7919e7a409881352fac7811d00744070ff8227bc81c0c5aab68c5d500b4a9c906e139cf2b331db6b43001b64452484cfe1bb38aaa3d3570c884d921526d06d91b",
          "signatureType": "EOA"
        },
        {
          "owner": "0x76609104852dc5CdB3AEcA438054360A767b7095",
          "submissionDate": "2022-09-28T14:35:44.812406Z",
          "transactionHash": null,
          "signature": "0x9cc710b0b7353a8c7f7dc4c080e0862cc6f9837f902f6c9c024296d84a4109dd183fb232028cde1bbf06c0e9343db60c0d26fd0b973cad9ebcaf2f910f660ce71c",
          "signatureType": "EOA"
        },
        {
          "owner": "0x2B59FD03d176aFC335Fa6D4FBCDf5cF48a6844FB",
          "submissionDate": "2022-10-04T22:27:47Z",
          "transactionHash": null,
          "signature": "0x0000000000000000000000002b59fd03d176afc335fa6d4fbcdf5cf48a6844fb000000000000000000000000000000000000000000000000000000000000000001",
          "signatureType": "APPROVED_HASH"
        }
      ],
      "trusted": true,
      "signatures": "0x0000000000000000000000002b59fd03d176afc335fa6d4fbcdf5cf48a6844fb0000000000000000000000000000000000000000000000000000000000000000019cc710b0b7353a8c7f7dc4c080e0862cc6f9837f902f6c9c024296d84a4109dd183fb232028cde1bbf06c0e9343db60c0d26fd0b973cad9ebcaf2f910f660ce71cd7919e7a409881352fac7811d00744070ff8227bc81c0c5aab68c5d500b4a9c906e139cf2b331db6b43001b64452484cfe1bb38aaa3d3570c884d921526d06d91b"
    }
  ]
}
