{
  "count": 1,
  "next": null,
  "previous": null,
  "results": [
    {
      "safe": "0x0c2A08D294026Cd363441240C2ed5D09C93A044F",
      "to": "0x7Af3460d552f832fD7E2DE973c628ACeA59B0712",
      "value": "0",
      "data": "0x42842e0e0000000000000000000000000c2a08d294026cd363441240c2ed5d09c93a044f0000000000000000000000003a55e304d9cf13e45ead6ba3dabccadd3a41935600000000000000000000000000000000000000000000000000000000000001ef",
      "operation": 0,
      "gasToken": "0x0000000000000000000000000000000000000000",
      "safeTxGas": 0,
      "baseGas": 0,
      "gasPrice": "0",
      "refundReceiver": "0x0000000000000000000000000000000000000000",
      "nonce": 9,
      "executionDate": "2022-06-21T23:12:32.000Z",
      "submissionDate": "2022-06-18T11:16:37.841Z",
      "modified": "2022-11-30T14:01:25.273Z",
      "blockNumber": 15004697,
      "transactionHash": "0x318d85a1c54908a783e18a60dd5d2ee441666a79f5e731a173a3dcda7f064d18",
      "safeTxHash": "0x0f9f1b728578e2bc28449f1c1457e7ee42c5824dc6bb321079181c2bf7ea8a6d",
      "executor": "0x76609104852dc5CdB3AEcA438054360A767b7095",
      "isExecuted": true,
      "isSuccessful": true,
      "ethGasPrice": "24997168558",
      "maxFeePerGas": "28000000000",
      "maxPriorityFeePerGas": "2000000000",
      "gasUsed": 133126,
      "fee": "3327773061452308",
      "origin": "{}",
      "dataDecoded": {
        "method": "safeTransferFrom",
        "parameters": [
          {
            "name": "from",
            "type": "address",
            "value": "0x0c2A08D294026Cd363441240C2ed5D09C93A044F"
          },
          {
            "name": "to",
            "type": "address",
            "value": "0x3a55e304D9cF13E45Ead6BA3DabCcadD3a419356"
          },
          {
            "name": "tokenId",
            "type": "uint256",
            "value": "495"
          }
        ]
      },
      "confirmationsRequired": 3,
      "confirmations": [
        {
          "owner": "0xA21A42025B394EfACBb45ed1d76fE098464812C1",
          "submissionDate": "2022-06-18T11:16:37.866Z",
          "transactionHash": null,
          "signature": "0xa3158aad28f3484e8034a032227e6fc837ce8a2fdd57c9f2f3d203141b7868d66f8747a4945c846dd05ac96761c7bfd3ae56b47a312a50f1c57d9b56f6f849fd1f",
          "signatureType": "ETH_SIGN"
        },
        {
          "owner": "0xcb43C75051F93F95DEfF5F9A971b8D5109a4f25C",
          "submissionDate": "2022-06-21T09:48:02.133Z",
          "transactionHash": null,
          "signature": "0xcaf000a41d60bfc071a3d80e63a6054b28a4a607d227de73af89f060dca9376d483c7a1067e9dc87424403d829d7d6a7cc48374ed0a8788f6025f6036bf5f1c91b",
          "signatureType": "EOA"
        },
        {
          "owner": "0x76609104852dc5CdB3AEcA438054360A767b7095",
          "submissionDate": "2022-06-21T23:12:32.000Z",
          "transactionHash": null,
          "signature": "0x00000000000000000000000076609104852dc5cdb3aeca438054360a767b7095000000000000000000000000000000000000000000000000000000000000000001",
          "signatureType": "APPROVED_HASH"
        }
      ],
      "trusted": true,
      "signatures": "0x00000000000000000000000076609104852dc5cdb3aeca438054360a767b7095000000000000000000000000000000000000000000000000000000000000000001a3158aad28f3484e8034a032227e6fc837ce8a2fdd57c9f2f3d203141b7868d66f8747a4945c846dd05ac96761c7bfd3ae56b47a312a50f1c57d9b56f6f849fd1fcaf000a41d60bfc071a3d80e63a6054b28a4a607d227de73af89f060dca9376d483c7a1067e9dc87424403d829d7d6a7cc48374ed0a8788f6025f6036bf5f1c91b"
    }
  ],
  "countUniqueNonce": 1
}
